{
  "contractName": "Casino",
  "abi": [
    {
      "constant": true,
      "inputs": [],
      "name": "numberOfBets",
      "outputs": [
        {
          "name": "",
          "type": "uint256"
        }
      ],
      "payable": false,
      "stateMutability": "view",
      "type": "function"
    },
    {
      "constant": true,
      "inputs": [
        {
          "name": "",
          "type": "address"
        }
      ],
      "name": "playerInfo",
      "outputs": [
        {
          "name": "amountBet",
          "type": "uint256"
        },
        {
          "name": "numberSelected",
          "type": "uint256"
        }
      ],
      "payable": false,
      "stateMutability": "view",
      "type": "function"
    },
    {
      "constant": true,
      "inputs": [],
      "name": "owner",
      "outputs": [
        {
          "name": "",
          "type": "address"
        }
      ],
      "payable": false,
      "stateMutability": "view",
      "type": "function"
    },
    {
      "constant": true,
      "inputs": [],
      "name": "minimumBet",
      "outputs": [
        {
          "name": "",
          "type": "uint256"
        }
      ],
      "payable": false,
      "stateMutability": "view",
      "type": "function"
    },
    {
      "constant": true,
      "inputs": [],
      "name": "maxAmountOfBets",
      "outputs": [
        {
          "name": "",
          "type": "uint256"
        }
      ],
      "payable": false,
      "stateMutability": "view",
      "type": "function"
    },
    {
      "constant": true,
      "inputs": [
        {
          "name": "",
          "type": "uint256"
        }
      ],
      "name": "players",
      "outputs": [
        {
          "name": "",
          "type": "address"
        }
      ],
      "payable": false,
      "stateMutability": "view",
      "type": "function"
    },
    {
      "constant": true,
      "inputs": [],
      "name": "totalBet",
      "outputs": [
        {
          "name": "",
          "type": "uint256"
        }
      ],
      "payable": false,
      "stateMutability": "view",
      "type": "function"
    },
    {
      "payable": true,
      "stateMutability": "payable",
      "type": "fallback"
    },
    {
      "constant": false,
      "inputs": [
        {
          "name": "_minimumBet",
          "type": "uint256"
        }
      ],
      "name": "constuctor",
      "outputs": [],
      "payable": false,
      "stateMutability": "nonpayable",
      "type": "function"
    },
    {
      "constant": false,
      "inputs": [],
      "name": "kill",
      "outputs": [],
      "payable": false,
      "stateMutability": "nonpayable",
      "type": "function"
    },
    {
      "constant": true,
      "inputs": [
        {
          "name": "player",
          "type": "address"
        }
      ],
      "name": "checkPlayerExists",
      "outputs": [
        {
          "name": "",
          "type": "bool"
        }
      ],
      "payable": false,
      "stateMutability": "view",
      "type": "function"
    },
    {
      "constant": false,
      "inputs": [
        {
          "name": "numberSelected",
          "type": "uint256"
        }
      ],
      "name": "bet",
      "outputs": [],
      "payable": true,
      "stateMutability": "payable",
      "type": "function"
    },
    {
      "constant": false,
      "inputs": [],
      "name": "generateNumberWinner",
      "outputs": [],
      "payable": false,
      "stateMutability": "nonpayable",
      "type": "function"
    },
    {
      "constant": false,
      "inputs": [
        {
          "name": "numberWinner",
          "type": "uint256"
        }
      ],
      "name": "distributePrizes",
      "outputs": [],
      "payable": false,
      "stateMutability": "nonpayable",
      "type": "function"
    },
    {
      "constant": false,
      "inputs": [],
      "name": "resetData",
      "outputs": [],
      "payable": false,
      "stateMutability": "nonpayable",
      "type": "function"
    }
  ],
  "bytecode": "0x6080604052606460045534801561001557600080fd5b50610a76806100256000396000f3006080604052600436106100d0576000357c0100000000000000000000000000000000000000000000000000000000900463ffffffff1680630a50e361146100d25780632ca8c6d3146100e95780634081d9161461011457806341c0e1b51461016f578063478c4e0e146101865780634b1146911461019d5780636ca3fc3b146101fb5780637365870b146102285780638da5cb5b14610248578063a6f1971c1461029f578063c38a8afd146102cc578063e08a96cd146102f7578063f71d96cb14610322578063fe5e18531461038f575b005b3480156100de57600080fd5b506100e76103ba565b005b3480156100f557600080fd5b506100fe6103da565b6040518082815260200191505060405180910390f35b34801561012057600080fd5b50610155600480360381019080803573ffffffffffffffffffffffffffffffffffffffff1690602001909291905050506103e0565b604051808215151515815260200191505060405180910390f35b34801561017b57600080fd5b50610184610483565b005b34801561019257600080fd5b5061019b610514565b005b3480156101a957600080fd5b506101de600480360381019080803573ffffffffffffffffffffffffffffffffffffffff169060200190929190505050610536565b604051808381526020018281526020019250505060405180910390f35b34801561020757600080fd5b506102266004803603810190808035906020019092919050505061055a565b005b61024660048036038101908080359060200190929190505050610799565b005b34801561025457600080fd5b5061025d61090b565b604051808273ffffffffffffffffffffffffffffffffffffffff1673ffffffffffffffffffffffffffffffffffffffff16815260200191505060405180910390f35b3480156102ab57600080fd5b506102ca60048036038101908080359060200190929190505050610930565b005b3480156102d857600080fd5b506102e1610985565b6040518082815260200191505060405180910390f35b34801561030357600080fd5b5061030c61098b565b6040518082815260200191505060405180910390f35b34801561032e57600080fd5b5061034d60048036038101908080359060200190929190505050610991565b604051808273ffffffffffffffffffffffffffffffffffffffff1673ffffffffffffffffffffffffffffffffffffffff16815260200191505060405180910390f35b34801561039b57600080fd5b506103a46109cf565b6040518082815260200191505060405180910390f35b60006001600a438115156103ca57fe5b060190506103d78161055a565b50565b60035481565b600080600090505b600580549050811015610478578273ffffffffffffffffffffffffffffffffffffffff1660058281548110151561041b57fe5b9060005260206000200160009054906101000a900473ffffffffffffffffffffffffffffffffffffffff1673ffffffffffffffffffffffffffffffffffffffff16141561046b576001915061047d565b80806001019150506103e8565b600091505b50919050565b6000809054906101000a900473ffffffffffffffffffffffffffffffffffffffff1673ffffffffffffffffffffffffffffffffffffffff163373ffffffffffffffffffffffffffffffffffffffff161415610512576000809054906101000a900473ffffffffffffffffffffffffffffffffffffffff1673ffffffffffffffffffffffffffffffffffffffff16ff5b565b600060058161052391906109d5565b5060006002819055506000600381905550565b60066020528060005260406000206000915090508060000154908060010154905082565b610562610a01565b6000806000806000809450600093505b6005805490508410156106b35760058481548110151561058e57fe5b9060005260206000200160009054906101000a900473ffffffffffffffffffffffffffffffffffffffff16925086600660008573ffffffffffffffffffffffffffffffffffffffff1673ffffffffffffffffffffffffffffffffffffffff1681526020019081526020016000206001015414156106545782868660648110151561061457fe5b602002019073ffffffffffffffffffffffffffffffffffffffff16908173ffffffffffffffffffffffffffffffffffffffff168152505084806001019550505b600660008473ffffffffffffffffffffffffffffffffffffffff1673ffffffffffffffffffffffffffffffffffffffff168152602001908152602001600020600080820160009055600182016000905550508380600101945050610572565b60006005816106c291906109d5565b5060646002548115156106d157fe5b049150600090505b8481101561079057600073ffffffffffffffffffffffffffffffffffffffff16868260648110151561070757fe5b602002015173ffffffffffffffffffffffffffffffffffffffff1614151561078357858160648110151561073757fe5b602002015173ffffffffffffffffffffffffffffffffffffffff166108fc839081150290604051600060405180830381858888f19350505050158015610781573d6000803e3d6000fd5b505b80806001019150506106d9565b50505050505050565b6107a2336103e0565b1515156107ae57600080fd5b600181101580156107c05750600a8111155b15156107cb57600080fd5b60015434101515156107dc57600080fd5b34600660003373ffffffffffffffffffffffffffffffffffffffff1673ffffffffffffffffffffffffffffffffffffffff1681526020019081526020016000206000018190555080600660003373ffffffffffffffffffffffffffffffffffffffff1673ffffffffffffffffffffffffffffffffffffffff1681526020019081526020016000206001018190555060036000815480929190600101919050555060053390806001815401808255809150509060018203906000526020600020016000909192909190916101000a81548173ffffffffffffffffffffffffffffffffffffffff021916908373ffffffffffffffffffffffffffffffffffffffff1602179055505034600260008282540192505081905550600454600354101515610908576109076103ba565b5b50565b6000809054906101000a900473ffffffffffffffffffffffffffffffffffffffff1681565b336000806101000a81548173ffffffffffffffffffffffffffffffffffffffff021916908373ffffffffffffffffffffffffffffffffffffffff16021790555060008114151561098257806001819055505b50565b60015481565b60045481565b6005818154811015156109a057fe5b906000526020600020016000915054906101000a900473ffffffffffffffffffffffffffffffffffffffff1681565b60025481565b8154818355818111156109fc578183600052602060002091820191016109fb9190610a25565b5b505050565b610c8060405190810160405280606490602082028038833980820191505090505090565b610a4791905b80821115610a43576000816000905550600101610a2b565b5090565b905600a165627a7a72305820db10d229411fb0bd04489aec26c1445c2245090eb762431613a7e19453362b550029",
  "source": "pragma solidity 0.4.23;\ncontract Casino {\n   address public owner;\n   uint256 public minimumBet;\n   uint256 public totalBet;\n   uint256 public numberOfBets;\n   uint256 public maxAmountOfBets = 100;\n   address[] public players;\n\n   struct Player {\n      uint256 amountBet;\n      uint256 numberSelected;\n   }\n\n   // The address of the player and => the user info   \n   mapping(address => Player) public playerInfo;\n\n// Fallback \n   function() public payable {}\n\nfunction constuctor(uint256 _minimumBet){\n   owner = msg.sender;\n   if(_minimumBet != 0 ) minimumBet = _minimumBet;\n}\n\n   function kill() public {\n      if(msg.sender == owner) selfdestruct(owner);\n   }\nfunction checkPlayerExists(address player) public constant returns(bool){\n      for(uint256 i = 0; i < players.length; i++){\n         if(players[i] == player) return true;\n      }\n      return false;\n   }\n\n   // To bet for a number between 1 and 10 both inclusive\n   function bet(uint256 numberSelected) public payable {\n      require(!checkPlayerExists(msg.sender));\n      require(numberSelected >= 1 && numberSelected <= 10);\n      require(msg.value >= minimumBet);\n\n      playerInfo[msg.sender].amountBet = msg.value;\n      playerInfo[msg.sender].numberSelected = numberSelected;\n      numberOfBets++;\n      players.push(msg.sender);\n      totalBet += msg.value;\n      if(numberOfBets >= maxAmountOfBets) generateNumberWinner();\n   }\n// Generates a number between 1 and 10 that will be the winner\n   function generateNumberWinner() public {\n      uint256 numberGenerated = block.number % 10 + 1; // This isn't secure\n      distributePrizes(numberGenerated);\n   }\n\n   // Sends the corresponding ether to each winner depending on the total bets\n   function distributePrizes(uint256 numberWinner) public {\n      address[100] memory winners; // We have to create a temporary in memory array with fixed size\n      uint256 count = 0; // This is the count for the array of winners\n\n      for(uint256 i = 0; i < players.length; i++){\n         address playerAddress = players[i];\n         if(playerInfo[playerAddress].numberSelected == numberWinner){\n            winners[count] = playerAddress;\n            count++;\n         }\n         delete playerInfo[playerAddress]; // Delete all the players\n      }\n\n      players.length = 0; // Delete all the players array\n\n      uint256 winnerEtherAmount = totalBet / winners.length; // How much each winner gets\n\n      for(uint256 j = 0; j < count; j++){\n         if(winners[j] != address(0)) // Check that the address in this fixed array is not empty\n         winners[j].transfer(winnerEtherAmount);\n      }\n   }\nfunction resetData(){\n   players.length = 0; // Delete all the players array\n   totalBet = 0;\n   numberOfBets = 0;\n}\n\n}\n",
  "sourcePath": "/home/amel/el-casino/contracts/casino.sol",
  "compiler": {
    "name": "solc",
    "version": "0.4.23+commit.124ca40d.Emscripten.clang"
  },
  "schemaVersion": "2.0.0",
  "updatedAt": "2018-04-26T21:03:09.514Z"
}